{
  "contractName": "CredentialVerification",
  "abi": [
    {
      "anonymous": false,
      "inputs": [
        {
          "indexed": true,
          "internalType": "address",
          "name": "user",
          "type": "address"
        },
        {
          "indexed": false,
          "internalType": "string",
          "name": "credentialHash",
          "type": "string"
        }
      ],
      "name": "CredentialAdded",
      "type": "event"
    },
    {
      "anonymous": false,
      "inputs": [
        {
          "indexed": true,
          "internalType": "address",
          "name": "user",
          "type": "address"
        },
        {
          "indexed": false,
          "internalType": "string",
          "name": "credentialHash",
          "type": "string"
        }
      ],
      "name": "CredentialVerified",
      "type": "event"
    },
    {
      "inputs": [
        {
          "internalType": "address",
          "name": "",
          "type": "address"
        },
        {
          "internalType": "uint256",
          "name": "",
          "type": "uint256"
        }
      ],
      "name": "credentials",
      "outputs": [
        {
          "internalType": "string",
          "name": "credentialHash",
          "type": "string"
        },
        {
          "internalType": "address",
          "name": "issuer",
          "type": "address"
        },
        {
          "internalType": "bool",
          "name": "verified",
          "type": "bool"
        }
      ],
      "stateMutability": "view",
      "type": "function"
    },
    {
      "inputs": [
        {
          "internalType": "string",
          "name": "_credentialHash",
          "type": "string"
        }
      ],
      "name": "addCredential",
      "outputs": [],
      "stateMutability": "nonpayable",
      "type": "function"
    },
    {
      "inputs": [
        {
          "internalType": "address",
          "name": "_user",
          "type": "address"
        },
        {
          "internalType": "string",
          "name": "_credentialHash",
          "type": "string"
        }
      ],
      "name": "verifyCredential",
      "outputs": [],
      "stateMutability": "nonpayable",
      "type": "function"
    },
    {
      "inputs": [
        {
          "internalType": "address",
          "name": "_user",
          "type": "address"
        },
        {
          "internalType": "string",
          "name": "_credentialHash",
          "type": "string"
        }
      ],
      "name": "isCredentialVerified",
      "outputs": [
        {
          "internalType": "bool",
          "name": "",
          "type": "bool"
        }
      ],
      "stateMutability": "view",
      "type": "function"
    }
  ],
  "bytecode": "0x608060405234801561001057600080fd5b50610e83806100206000396000f3fe608060405234801561001057600080fd5b506004361061004c5760003560e01c806303cb278a14610051578063209c7ad114610083578063218e9fe41461009f578063c16c7a58146100bb575b600080fd5b61006b6004803603810190610066919061068d565b6100eb565b60405161007a93929190610787565b60405180910390f35b61009d600480360381019061009891906108fa565b6101e7565b005b6100b960048036038101906100b49190610956565b610357565b005b6100d560048036038101906100d091906108fa565b6104c2565b6040516100e2919061099f565b60405180910390f35b6000602052816000526040600020818154811061010757600080fd5b90600052602060002090600202016000915091505080600001805461012b906109e9565b80601f0160208091040260200160405190810160405280929190818152602001828054610157906109e9565b80156101a45780601f10610179576101008083540402835291602001916101a4565b820191906000526020600020905b81548152906001019060200180831161018757829003601f168201915b5050505050908060010160009054906101000a900473ffffffffffffffffffffffffffffffffffffffff16908060010160149054906101000a900460ff16905083565b60008060008473ffffffffffffffffffffffffffffffffffffffff1673ffffffffffffffffffffffffffffffffffffffff168152602001908152602001600020905060005b818054905081101561035157826040516020016102499190610a56565b6040516020818303038152906040528051906020012082828154811061027257610271610a6d565b5b90600052602060002090600202016000016040516020016102939190610b34565b604051602081830303815290604052805190602001200361033e5760018282815481106102c3576102c2610a6d565b5b906000526020600020906002020160010160146101000a81548160ff0219169083151502179055508373ffffffffffffffffffffffffffffffffffffffff167f27cdaaf066f4f3d8615f9594def64e91cd38a33e16389a65cb3275347247ee4b846040516103319190610b4b565b60405180910390a2610351565b808061034990610b9c565b91505061022c565b50505050565b6000803373ffffffffffffffffffffffffffffffffffffffff1673ffffffffffffffffffffffffffffffffffffffff16815260200190815260200160002060405180606001604052808381526020013373ffffffffffffffffffffffffffffffffffffffff16815260200160001515815250908060018154018082558091505060019003906000526020600020906002020160009091909190915060008201518160000190816104079190610d7b565b5060208201518160010160006101000a81548173ffffffffffffffffffffffffffffffffffffffff021916908373ffffffffffffffffffffffffffffffffffffffff16021790555060408201518160010160146101000a81548160ff02191690831515021790555050503373ffffffffffffffffffffffffffffffffffffffff167f61d15d1a8a9eae9b8dbc91456aba9bd75089cd9761ffefeaf4c93f2c405ae74f826040516104b79190610b4b565b60405180910390a250565b6000806000808573ffffffffffffffffffffffffffffffffffffffff1673ffffffffffffffffffffffffffffffffffffffff168152602001908152602001600020905060005b81805490508110156105d857836040516020016105259190610a56565b6040516020818303038152906040528051906020012082828154811061054e5761054d610a6d565b5b906000526020600020906002020160000160405160200161056f9190610b34565b60405160208183030381529060405280519060200120036105c55781818154811061059d5761059c610a6d565b5b906000526020600020906002020160010160149054906101000a900460ff16925050506105df565b80806105d090610b9c565b915050610508565b5060009150505b92915050565b6000604051905090565b600080fd5b600080fd5b600073ffffffffffffffffffffffffffffffffffffffff82169050919050565b6000610624826105f9565b9050919050565b61063481610619565b811461063f57600080fd5b50565b6000813590506106518161062b565b92915050565b6000819050919050565b61066a81610657565b811461067557600080fd5b50565b60008135905061068781610661565b92915050565b600080604083850312156106a4576106a36105ef565b5b60006106b285828601610642565b92505060206106c385828601610678565b9150509250929050565b600081519050919050565b600082825260208201905092915050565b60005b838110156107075780820151818401526020810190506106ec565b60008484015250505050565b6000601f19601f8301169050919050565b600061072f826106cd565b61073981856106d8565b93506107498185602086016106e9565b61075281610713565b840191505092915050565b61076681610619565b82525050565b60008115159050919050565b6107818161076c565b82525050565b600060608201905081810360008301526107a18186610724565b90506107b0602083018561075d565b6107bd6040830184610778565b949350505050565b600080fd5b600080fd5b7f4e487b7100000000000000000000000000000000000000000000000000000000600052604160045260246000fd5b61080782610713565b810181811067ffffffffffffffff82111715610826576108256107cf565b5b80604052505050565b60006108396105e5565b905061084582826107fe565b919050565b600067ffffffffffffffff821115610865576108646107cf565b5b61086e82610713565b9050602081019050919050565b82818337600083830152505050565b600061089d6108988461084a565b61082f565b9050828152602081018484840111156108b9576108b86107ca565b5b6108c484828561087b565b509392505050565b600082601f8301126108e1576108e06107c5565b5b81356108f184826020860161088a565b91505092915050565b60008060408385031215610911576109106105ef565b5b600061091f85828601610642565b925050602083013567ffffffffffffffff8111156109405761093f6105f4565b5b61094c858286016108cc565b9150509250929050565b60006020828403121561096c5761096b6105ef565b5b600082013567ffffffffffffffff81111561098a576109896105f4565b5b610996848285016108cc565b91505092915050565b60006020820190506109b46000830184610778565b92915050565b7f4e487b7100000000000000000000000000000000000000000000000000000000600052602260045260246000fd5b60006002820490506001821680610a0157607f821691505b602082108103610a1457610a136109ba565b5b50919050565b600081905092915050565b6000610a30826106cd565b610a3a8185610a1a565b9350610a4a8185602086016106e9565b80840191505092915050565b6000610a628284610a25565b915081905092915050565b7f4e487b7100000000000000000000000000000000000000000000000000000000600052603260045260246000fd5b60008190508160005260206000209050919050565b60008154610abe816109e9565b610ac88186610a1a565b94506001821660008114610ae35760018114610af857610b2b565b60ff1983168652811515820286019350610b2b565b610b0185610a9c565b60005b83811015610b2357815481890152600182019150602081019050610b04565b838801955050505b50505092915050565b6000610b408284610ab1565b915081905092915050565b60006020820190508181036000830152610b658184610724565b905092915050565b7f4e487b7100000000000000000000000000000000000000000000000000000000600052601160045260246000fd5b6000610ba782610657565b91507fffffffffffffffffffffffffffffffffffffffffffffffffffffffffffffffff8203610bd957610bd8610b6d565b5b600182019050919050565b60006020601f8301049050919050565b600082821b905092915050565b600060088302610c317fffffffffffffffffffffffffffffffffffffffffffffffffffffffffffffffff82610bf4565b610c3b8683610bf4565b95508019841693508086168417925050509392505050565b6000819050919050565b6000610c78610c73610c6e84610657565b610c53565b610657565b9050919050565b6000819050919050565b610c9283610c5d565b610ca6610c9e82610c7f565b848454610c01565b825550505050565b600090565b610cbb610cae565b610cc6818484610c89565b505050565b5b81811015610cea57610cdf600082610cb3565b600181019050610ccc565b5050565b601f821115610d2f57610d0081610a9c565b610d0984610be4565b81016020851015610d18578190505b610d2c610d2485610be4565b830182610ccb565b50505b505050565b600082821c905092915050565b6000610d5260001984600802610d34565b1980831691505092915050565b6000610d6b8383610d41565b9150826002028217905092915050565b610d84826106cd565b67ffffffffffffffff811115610d9d57610d9c6107cf565b5b610da782546109e9565b610db2828285610cee565b600060209050601f831160018114610de55760008415610dd3578287015190505b610ddd8582610d5f565b865550610e45565b601f198416610df386610a9c565b60005b82811015610e1b57848901518255600182019150602085019450602081019050610df6565b86831015610e385784890151610e34601f891682610d41565b8355505b6001600288020188555050505b50505050505056fea26469706673582212209b141d3009ccd0ac3d85fad52192507060aa6e99d178fe2b07536ce9d2a15cef64736f6c63430008130033",
  "immutableReferences": {},
  "source": "// SPDX-License-Identifier: MIT\r\npragma solidity ^0.8.19;\r\n\r\ncontract CredentialVerification {\r\n    struct Credential {\r\n        string credentialHash;\r\n        address issuer;\r\n        bool verified;\r\n    }\r\n\r\n    mapping(address => Credential[]) public credentials;\r\n\r\n    event CredentialAdded(address indexed user, string credentialHash);\r\n    event CredentialVerified(address indexed user, string credentialHash);\r\n\r\n    function addCredential(string memory _credentialHash) public {\r\n        credentials[msg.sender].push(Credential({\r\n            credentialHash: _credentialHash,\r\n            issuer: msg.sender,\r\n            verified: false\r\n        }));\r\n        emit CredentialAdded(msg.sender, _credentialHash);\r\n    }\r\n\r\n    function verifyCredential(address _user, string memory _credentialHash) public {\r\n        Credential[] storage userCredentials = credentials[_user];\r\n        for (uint i = 0; i < userCredentials.length; i++) {\r\n            if (keccak256(abi.encodePacked(userCredentials[i].credentialHash)) == keccak256(abi.encodePacked(_credentialHash))) {\r\n                userCredentials[i].verified = true;\r\n                emit CredentialVerified(_user, _credentialHash);\r\n                break;\r\n            }\r\n        }\r\n    }\r\n\r\n    function isCredentialVerified(address _user, string memory _credentialHash) public view returns (bool) {\r\n        Credential[] storage userCredentials = credentials[_user];\r\n        for (uint i = 0; i < userCredentials.length; i++) {\r\n            if (keccak256(abi.encodePacked(userCredentials[i].credentialHash)) == keccak256(abi.encodePacked(_credentialHash))) {\r\n                return userCredentials[i].verified;\r\n            }\r\n        }\r\n        return false;\r\n    }\r\n}\r\n",
  "sourcePath": "C:\\Users\\noble\\blockchain-talent-marketplace\\contracts\\CredentialVerification.sol",
  "compiler": {
    "name": "solc",
    "version": "0.8.19+commit.7dd6d404.Emscripten.clang"
  },
  "schemaVersion": "3.4.16",
  "updatedAt": "2024-07-25T08:54:16.653Z",
  "devdoc": {
    "kind": "dev",
    "methods": {},
    "version": 1
  },
  "userdoc": {
    "kind": "user",
    "methods": {},
    "version": 1
  }
}