{
  "contractName": "JobAgreements",
  "abi": [
    {
      "anonymous": false,
      "inputs": [
        {
          "indexed": true,
          "internalType": "uint256",
          "name": "jobId",
          "type": "uint256"
        }
      ],
      "name": "JobAgreementCompleted",
      "type": "event"
    },
    {
      "anonymous": false,
      "inputs": [
        {
          "indexed": true,
          "internalType": "uint256",
          "name": "jobId",
          "type": "uint256"
        },
        {
          "indexed": true,
          "internalType": "address",
          "name": "employer",
          "type": "address"
        },
        {
          "indexed": true,
          "internalType": "address",
          "name": "professional",
          "type": "address"
        },
        {
          "indexed": false,
          "internalType": "string",
          "name": "jobDetails",
          "type": "string"
        },
        {
          "indexed": false,
          "internalType": "uint256",
          "name": "payment",
          "type": "uint256"
        }
      ],
      "name": "JobAgreementCreated",
      "type": "event"
    },
    {
      "inputs": [
        {
          "internalType": "uint256",
          "name": "",
          "type": "uint256"
        }
      ],
      "name": "jobAgreements",
      "outputs": [
        {
          "internalType": "address",
          "name": "employer",
          "type": "address"
        },
        {
          "internalType": "address",
          "name": "professional",
          "type": "address"
        },
        {
          "internalType": "string",
          "name": "jobDetails",
          "type": "string"
        },
        {
          "internalType": "uint256",
          "name": "payment",
          "type": "uint256"
        },
        {
          "internalType": "bool",
          "name": "completed",
          "type": "bool"
        }
      ],
      "stateMutability": "view",
      "type": "function"
    },
    {
      "inputs": [
        {
          "internalType": "address",
          "name": "_professional",
          "type": "address"
        },
        {
          "internalType": "string",
          "name": "_jobDetails",
          "type": "string"
        },
        {
          "internalType": "uint256",
          "name": "_payment",
          "type": "uint256"
        }
      ],
      "name": "createJobAgreement",
      "outputs": [],
      "stateMutability": "nonpayable",
      "type": "function"
    },
    {
      "inputs": [
        {
          "internalType": "uint256",
          "name": "_jobId",
          "type": "uint256"
        }
      ],
      "name": "completeJobAgreement",
      "outputs": [],
      "stateMutability": "nonpayable",
      "type": "function"
    },
    {
      "inputs": [
        {
          "internalType": "uint256",
          "name": "_jobId",
          "type": "uint256"
        }
      ],
      "name": "getJobAgreement",
      "outputs": [
        {
          "components": [
            {
              "internalType": "address",
              "name": "employer",
              "type": "address"
            },
            {
              "internalType": "address",
              "name": "professional",
              "type": "address"
            },
            {
              "internalType": "string",
              "name": "jobDetails",
              "type": "string"
            },
            {
              "internalType": "uint256",
              "name": "payment",
              "type": "uint256"
            },
            {
              "internalType": "bool",
              "name": "completed",
              "type": "bool"
            }
          ],
          "internalType": "struct JobAgreements.JobAgreement",
          "name": "",
          "type": "tuple"
        }
      ],
      "stateMutability": "view",
      "type": "function"
    }
  ],
  "bytecode": "0x608060405234801561001057600080fd5b50611007806100206000396000f3fe608060405234801561001057600080fd5b506004361061004c5760003560e01c8063386003411461005157806342933b4314610081578063d87563f0146100b5578063ea635cf7146100d1575b600080fd5b61006b6004803603810190610066919061073e565b6100ed565b60405161007891906108dc565b60405180910390f35b61009b6004803603810190610096919061073e565b61028c565b6040516100ac959493929190610975565b60405180910390f35b6100cf60048036038101906100ca919061073e565b6103a7565b005b6100eb60048036038101906100e69190610b30565b6104c8565b005b6100f5610697565b6000828154811061010957610108610b9f565b5b90600052602060002090600502016040518060a00160405290816000820160009054906101000a900473ffffffffffffffffffffffffffffffffffffffff1673ffffffffffffffffffffffffffffffffffffffff1673ffffffffffffffffffffffffffffffffffffffff1681526020016001820160009054906101000a900473ffffffffffffffffffffffffffffffffffffffff1673ffffffffffffffffffffffffffffffffffffffff1673ffffffffffffffffffffffffffffffffffffffff1681526020016002820180546101de90610bfd565b80601f016020809104026020016040519081016040528092919081815260200182805461020a90610bfd565b80156102575780601f1061022c57610100808354040283529160200191610257565b820191906000526020600020905b81548152906001019060200180831161023a57829003601f168201915b50505050508152602001600382015481526020016004820160009054906101000a900460ff1615151515815250509050919050565b6000818154811061029c57600080fd5b90600052602060002090600502016000915090508060000160009054906101000a900473ffffffffffffffffffffffffffffffffffffffff16908060010160009054906101000a900473ffffffffffffffffffffffffffffffffffffffff169080600201805461030b90610bfd565b80601f016020809104026020016040519081016040528092919081815260200182805461033790610bfd565b80156103845780601f1061035957610100808354040283529160200191610384565b820191906000526020600020905b81548152906001019060200180831161036757829003601f168201915b5050505050908060030154908060040160009054906101000a900460ff16905085565b3373ffffffffffffffffffffffffffffffffffffffff16600082815481106103d2576103d1610b9f565b5b906000526020600020906005020160010160009054906101000a900473ffffffffffffffffffffffffffffffffffffffff1673ffffffffffffffffffffffffffffffffffffffff161461045a576040517f08c379a000000000000000000000000000000000000000000000000000000000815260040161045190610ca0565b60405180910390fd5b6001600082815481106104705761046f610b9f565b5b906000526020600020906005020160040160006101000a81548160ff021916908315150217905550807f9c80988ebebec9b7124ecb7558ab4d717c9c4e519d9ea0de9cf1da036cb0a31a60405160405180910390a250565b60006040518060a001604052803373ffffffffffffffffffffffffffffffffffffffff1681526020018573ffffffffffffffffffffffffffffffffffffffff16815260200184815260200183815260200160001515815250908060018154018082558091505060019003906000526020600020906005020160009091909190915060008201518160000160006101000a81548173ffffffffffffffffffffffffffffffffffffffff021916908373ffffffffffffffffffffffffffffffffffffffff16021790555060208201518160010160006101000a81548173ffffffffffffffffffffffffffffffffffffffff021916908373ffffffffffffffffffffffffffffffffffffffff16021790555060408201518160020190816105ec9190610e6c565b506060820151816003015560808201518160040160006101000a81548160ff02191690831515021790555050508273ffffffffffffffffffffffffffffffffffffffff163373ffffffffffffffffffffffffffffffffffffffff1660016000805490506106599190610f6d565b7fe7c4c31bc62099dde3bc583aba0d29c075e3676459ffa21df853b95581c1cb8d858560405161068a929190610fa1565b60405180910390a4505050565b6040518060a00160405280600073ffffffffffffffffffffffffffffffffffffffff168152602001600073ffffffffffffffffffffffffffffffffffffffff16815260200160608152602001600081526020016000151581525090565b6000604051905090565b600080fd5b600080fd5b6000819050919050565b61071b81610708565b811461072657600080fd5b50565b60008135905061073881610712565b92915050565b600060208284031215610754576107536106fe565b5b600061076284828501610729565b91505092915050565b600073ffffffffffffffffffffffffffffffffffffffff82169050919050565b60006107968261076b565b9050919050565b6107a68161078b565b82525050565b600081519050919050565b600082825260208201905092915050565b60005b838110156107e65780820151818401526020810190506107cb565b60008484015250505050565b6000601f19601f8301169050919050565b600061080e826107ac565b61081881856107b7565b93506108288185602086016107c8565b610831816107f2565b840191505092915050565b61084581610708565b82525050565b60008115159050919050565b6108608161084b565b82525050565b600060a08301600083015161087e600086018261079d565b506020830151610891602086018261079d565b50604083015184820360408601526108a98282610803565b91505060608301516108be606086018261083c565b5060808301516108d16080860182610857565b508091505092915050565b600060208201905081810360008301526108f68184610866565b905092915050565b6109078161078b565b82525050565b600082825260208201905092915050565b6000610929826107ac565b610933818561090d565b93506109438185602086016107c8565b61094c816107f2565b840191505092915050565b61096081610708565b82525050565b61096f8161084b565b82525050565b600060a08201905061098a60008301886108fe565b61099760208301876108fe565b81810360408301526109a9818661091e565b90506109b86060830185610957565b6109c56080830184610966565b9695505050505050565b6109d88161078b565b81146109e357600080fd5b50565b6000813590506109f5816109cf565b92915050565b600080fd5b600080fd5b7f4e487b7100000000000000000000000000000000000000000000000000000000600052604160045260246000fd5b610a3d826107f2565b810181811067ffffffffffffffff82111715610a5c57610a5b610a05565b5b80604052505050565b6000610a6f6106f4565b9050610a7b8282610a34565b919050565b600067ffffffffffffffff821115610a9b57610a9a610a05565b5b610aa4826107f2565b9050602081019050919050565b82818337600083830152505050565b6000610ad3610ace84610a80565b610a65565b905082815260208101848484011115610aef57610aee610a00565b5b610afa848285610ab1565b509392505050565b600082601f830112610b1757610b166109fb565b5b8135610b27848260208601610ac0565b91505092915050565b600080600060608486031215610b4957610b486106fe565b5b6000610b57868287016109e6565b935050602084013567ffffffffffffffff811115610b7857610b77610703565b5b610b8486828701610b02565b9250506040610b9586828701610729565b9150509250925092565b7f4e487b7100000000000000000000000000000000000000000000000000000000600052603260045260246000fd5b7f4e487b7100000000000000000000000000000000000000000000000000000000600052602260045260246000fd5b60006002820490506001821680610c1557607f821691505b602082108103610c2857610c27610bce565b5b50919050565b7f4f6e6c79207468652061737369676e65642070726f66657373696f6e616c206360008201527f616e20636f6d706c65746520746865206a6f6200000000000000000000000000602082015250565b6000610c8a60338361090d565b9150610c9582610c2e565b604082019050919050565b60006020820190508181036000830152610cb981610c7d565b9050919050565b60008190508160005260206000209050919050565b60006020601f8301049050919050565b600082821b905092915050565b600060088302610d227fffffffffffffffffffffffffffffffffffffffffffffffffffffffffffffffff82610ce5565b610d2c8683610ce5565b95508019841693508086168417925050509392505050565b6000819050919050565b6000610d69610d64610d5f84610708565b610d44565b610708565b9050919050565b6000819050919050565b610d8383610d4e565b610d97610d8f82610d70565b848454610cf2565b825550505050565b600090565b610dac610d9f565b610db7818484610d7a565b505050565b5b81811015610ddb57610dd0600082610da4565b600181019050610dbd565b5050565b601f821115610e2057610df181610cc0565b610dfa84610cd5565b81016020851015610e09578190505b610e1d610e1585610cd5565b830182610dbc565b50505b505050565b600082821c905092915050565b6000610e4360001984600802610e25565b1980831691505092915050565b6000610e5c8383610e32565b9150826002028217905092915050565b610e75826107ac565b67ffffffffffffffff811115610e8e57610e8d610a05565b5b610e988254610bfd565b610ea3828285610ddf565b600060209050601f831160018114610ed65760008415610ec4578287015190505b610ece8582610e50565b865550610f36565b601f198416610ee486610cc0565b60005b82811015610f0c57848901518255600182019150602085019450602081019050610ee7565b86831015610f295784890151610f25601f891682610e32565b8355505b6001600288020188555050505b505050505050565b7f4e487b7100000000000000000000000000000000000000000000000000000000600052601160045260246000fd5b6000610f7882610708565b9150610f8383610708565b9250828203905081811115610f9b57610f9a610f3e565b5b92915050565b60006040820190508181036000830152610fbb818561091e565b9050610fca6020830184610957565b939250505056fea264697066735822122055a688b3202d874b114ad20253054a5cc683ffc18b3cb0445372f57708a10dcd64736f6c63430008130033",
  "immutableReferences": {},
  "source": "// SPDX-License-Identifier: MIT\r\npragma solidity ^0.8.19;\r\n\r\ncontract JobAgreements {\r\n    struct JobAgreement {\r\n        address employer;\r\n        address professional;\r\n        string jobDetails;\r\n        uint256 payment;\r\n        bool completed;\r\n    }\r\n\r\n    JobAgreement[] public jobAgreements;\r\n\r\n    event JobAgreementCreated(uint256 indexed jobId, address indexed employer, address indexed professional, string jobDetails, uint256 payment);\r\n    event JobAgreementCompleted(uint256 indexed jobId);\r\n\r\n    function createJobAgreement(address _professional, string memory _jobDetails, uint256 _payment) public {\r\n        jobAgreements.push(JobAgreement({\r\n            employer: msg.sender,\r\n            professional: _professional,\r\n            jobDetails: _jobDetails,\r\n            payment: _payment,\r\n            completed: false\r\n        }));\r\n        emit JobAgreementCreated(jobAgreements.length - 1, msg.sender, _professional, _jobDetails, _payment);\r\n    }\r\n\r\n    function completeJobAgreement(uint256 _jobId) public {\r\n        require(jobAgreements[_jobId].professional == msg.sender, \"Only the assigned professional can complete the job\");\r\n        jobAgreements[_jobId].completed = true;\r\n        emit JobAgreementCompleted(_jobId);\r\n    }\r\n\r\n    function getJobAgreement(uint256 _jobId) public view returns (JobAgreement memory) {\r\n        return jobAgreements[_jobId];\r\n    }\r\n}\r\n",
  "sourcePath": "C:\\Users\\noble\\blockchain-talent-marketplace\\contracts\\JobAgreements.sol",
  "compiler": {
    "name": "solc",
    "version": "0.8.19+commit.7dd6d404.Emscripten.clang"
  },
  "schemaVersion": "3.4.16",
  "updatedAt": "2024-07-25T08:54:16.670Z",
  "devdoc": {
    "kind": "dev",
    "methods": {},
    "version": 1
  },
  "userdoc": {
    "kind": "user",
    "methods": {},
    "version": 1
  }
}