{
  "contractName": "PaymentSystem",
  "abi": [
    {
      "inputs": [
        {
          "internalType": "address",
          "name": "_jobAgreements",
          "type": "address"
        }
      ],
      "stateMutability": "nonpayable",
      "type": "constructor"
    },
    {
      "anonymous": false,
      "inputs": [
        {
          "indexed": true,
          "internalType": "uint256",
          "name": "jobId",
          "type": "uint256"
        },
        {
          "indexed": true,
          "internalType": "address",
          "name": "employer",
          "type": "address"
        },
        {
          "indexed": true,
          "internalType": "address",
          "name": "professional",
          "type": "address"
        },
        {
          "indexed": false,
          "internalType": "uint256",
          "name": "amount",
          "type": "uint256"
        }
      ],
      "name": "PaymentReleased",
      "type": "event"
    },
    {
      "inputs": [],
      "name": "jobAgreements",
      "outputs": [
        {
          "internalType": "contract JobAgreements",
          "name": "",
          "type": "address"
        }
      ],
      "stateMutability": "view",
      "type": "function"
    },
    {
      "inputs": [
        {
          "internalType": "uint256",
          "name": "_jobId",
          "type": "uint256"
        }
      ],
      "name": "releasePayment",
      "outputs": [],
      "stateMutability": "payable",
      "type": "function"
    }
  ],
  "bytecode": "0x608060405234801561001057600080fd5b506040516109dc3803806109dc833981810160405281019061003291906100db565b806000806101000a81548173ffffffffffffffffffffffffffffffffffffffff021916908373ffffffffffffffffffffffffffffffffffffffff16021790555050610108565b600080fd5b600073ffffffffffffffffffffffffffffffffffffffff82169050919050565b60006100a88261007d565b9050919050565b6100b88161009d565b81146100c357600080fd5b50565b6000815190506100d5816100af565b92915050565b6000602082840312156100f1576100f0610078565b5b60006100ff848285016100c6565b91505092915050565b6108c5806101176000396000f3fe6080604052600436106100295760003560e01c80637ee282db1461002e57806388685cd914610059575b600080fd5b34801561003a57600080fd5b50610043610075565b6040516100509190610371565b60405180910390f35b610073600480360381019061006e91906103d6565b610099565b005b60008054906101000a900473ffffffffffffffffffffffffffffffffffffffff1681565b60008060009054906101000a900473ffffffffffffffffffffffffffffffffffffffff1673ffffffffffffffffffffffffffffffffffffffff166338600341836040518263ffffffff1660e01b81526004016100f59190610412565b600060405180830381865afa158015610112573d6000803e3d6000fd5b505050506040513d6000823e3d601f19601f8201168201806040525081019061013b91906106cb565b90508060800151610181576040517f08c379a000000000000000000000000000000000000000000000000000000000815260040161017890610771565b60405180910390fd5b806000015173ffffffffffffffffffffffffffffffffffffffff163373ffffffffffffffffffffffffffffffffffffffff16146101f3576040517f08c379a00000000000000000000000000000000000000000000000000000000081526004016101ea90610803565b60405180910390fd5b80606001513414610239576040517f08c379a00000000000000000000000000000000000000000000000000000000081526004016102309061086f565b60405180910390fd5b806020015173ffffffffffffffffffffffffffffffffffffffff166108fc349081150290604051600060405180830381858888f19350505050158015610283573d6000803e3d6000fd5b50806020015173ffffffffffffffffffffffffffffffffffffffff163373ffffffffffffffffffffffffffffffffffffffff16837f23a1f1d698899279655350f84344b87245426099e1c060807bd35275582d2d0e346040516102e69190610412565b60405180910390a45050565b600073ffffffffffffffffffffffffffffffffffffffff82169050919050565b6000819050919050565b600061033761033261032d846102f2565b610312565b6102f2565b9050919050565b60006103498261031c565b9050919050565b600061035b8261033e565b9050919050565b61036b81610350565b82525050565b60006020820190506103866000830184610362565b92915050565b6000604051905090565b600080fd5b600080fd5b6000819050919050565b6103b3816103a0565b81146103be57600080fd5b50565b6000813590506103d0816103aa565b92915050565b6000602082840312156103ec576103eb610396565b5b60006103fa848285016103c1565b91505092915050565b61040c816103a0565b82525050565b60006020820190506104276000830184610403565b92915050565b600080fd5b6000601f19601f8301169050919050565b7f4e487b7100000000000000000000000000000000000000000000000000000000600052604160045260246000fd5b61047b82610432565b810181811067ffffffffffffffff8211171561049a57610499610443565b5b80604052505050565b60006104ad61038c565b90506104b98282610472565b919050565b600080fd5b60006104ce826102f2565b9050919050565b6104de816104c3565b81146104e957600080fd5b50565b6000815190506104fb816104d5565b92915050565b600080fd5b600080fd5b600067ffffffffffffffff82111561052657610525610443565b5b61052f82610432565b9050602081019050919050565b60005b8381101561055a57808201518184015260208101905061053f565b60008484015250505050565b60006105796105748461050b565b6104a3565b90508281526020810184848401111561059557610594610506565b5b6105a084828561053c565b509392505050565b600082601f8301126105bd576105bc610501565b5b81516105cd848260208601610566565b91505092915050565b6000815190506105e5816103aa565b92915050565b60008115159050919050565b610600816105eb565b811461060b57600080fd5b50565b60008151905061061d816105f7565b92915050565b600060a082840312156106395761063861042d565b5b61064360a06104a3565b90506000610653848285016104ec565b6000830152506020610667848285016104ec565b602083015250604082015167ffffffffffffffff81111561068b5761068a6104be565b5b610697848285016105a8565b60408301525060606106ab848285016105d6565b60608301525060806106bf8482850161060e565b60808301525092915050565b6000602082840312156106e1576106e0610396565b5b600082015167ffffffffffffffff8111156106ff576106fe61039b565b5b61070b84828501610623565b91505092915050565b600082825260208201905092915050565b7f4a6f622061677265656d656e74206973206e6f7420636f6d706c657465640000600082015250565b600061075b601e83610714565b915061076682610725565b602082019050919050565b6000602082019050818103600083015261078a8161074e565b9050919050565b7f4f6e6c792074686520656d706c6f7965722063616e2072656c6561736520706160008201527f796d656e74000000000000000000000000000000000000000000000000000000602082015250565b60006107ed602583610714565b91506107f882610791565b604082019050919050565b6000602082019050818103600083015261081c816107e0565b9050919050565b7f496e636f7272656374207061796d656e7420616d6f756e740000000000000000600082015250565b6000610859601883610714565b915061086482610823565b602082019050919050565b600060208201905081810360008301526108888161084c565b905091905056fea2646970667358221220b1bae38f880e216340d1751fed8015d2d24f087c9e6a8d32c7e73197f0d26a6964736f6c63430008130033",
  "immutableReferences": {},
  "source": "// SPDX-License-Identifier: MIT\r\npragma solidity ^0.8.19;\r\n\r\nimport \"./JobAgreements.sol\";\r\n\r\ncontract PaymentSystem {\r\n    JobAgreements public jobAgreements;\r\n\r\n    constructor(address _jobAgreements) {\r\n        jobAgreements = JobAgreements(_jobAgreements);\r\n    }\r\n\r\n    event PaymentReleased(uint256 indexed jobId, address indexed employer, address indexed professional, uint256 amount);\r\n\r\n    function releasePayment(uint256 _jobId) public payable {\r\n        JobAgreements.JobAgreement memory agreement = jobAgreements.getJobAgreement(_jobId);\r\n        require(agreement.completed, \"Job agreement is not completed\");\r\n        require(msg.sender == agreement.employer, \"Only the employer can release payment\");\r\n        require(msg.value == agreement.payment, \"Incorrect payment amount\");\r\n\r\n        payable(agreement.professional).transfer(msg.value);\r\n        emit PaymentReleased(_jobId, msg.sender, agreement.professional, msg.value);\r\n    }\r\n}\r\n",
  "sourcePath": "C:\\Users\\noble\\blockchain-talent-marketplace\\contracts\\PaymentSystem.sol",
  "compiler": {
    "name": "solc",
    "version": "0.8.19+commit.7dd6d404.Emscripten.clang"
  },
  "schemaVersion": "3.4.16",
  "updatedAt": "2024-07-25T08:54:16.684Z",
  "devdoc": {
    "kind": "dev",
    "methods": {},
    "version": 1
  },
  "userdoc": {
    "kind": "user",
    "methods": {},
    "version": 1
  }
}